{
  "contractName": "Location",
  "abi": [
    {
      "constant": true,
      "inputs": [
        {
          "name": "uri",
          "type": "bytes32"
        }
      ],
      "name": "checkIfUriExists",
      "outputs": [
        {
          "name": "exists",
          "type": "bool"
        }
      ],
      "payable": false,
      "stateMutability": "view",
      "type": "function"
    },
    {
      "constant": true,
      "inputs": [
        {
          "name": "index",
          "type": "uint256"
        }
      ],
      "name": "getLocationByIndex",
      "outputs": [
        {
          "name": "uri",
          "type": "bytes32"
        },
        {
          "name": "name",
          "type": "bytes32"
        }
      ],
      "payable": false,
      "stateMutability": "view",
      "type": "function"
    },
    {
      "constant": true,
      "inputs": [],
      "name": "getLocationCount",
      "outputs": [
        {
          "name": "locationCount",
          "type": "uint256"
        }
      ],
      "payable": false,
      "stateMutability": "view",
      "type": "function"
    },
    {
      "constant": false,
      "inputs": [
        {
          "name": "uri",
          "type": "bytes32"
        },
        {
          "name": "name",
          "type": "bytes32"
        }
      ],
      "name": "addLocation",
      "outputs": [
        {
          "name": "index",
          "type": "uint256"
        }
      ],
      "payable": false,
      "stateMutability": "nonpayable",
      "type": "function"
    },
    {
      "constant": true,
      "inputs": [
        {
          "name": "uri",
          "type": "bytes32"
        }
      ],
      "name": "getLocationByURI",
      "outputs": [
        {
          "name": "",
          "type": "bytes32"
        },
        {
          "name": "name",
          "type": "bytes32"
        }
      ],
      "payable": false,
      "stateMutability": "view",
      "type": "function"
    },
    {
      "inputs": [
        {
          "name": "teamAdr",
          "type": "address"
        }
      ],
      "payable": false,
      "stateMutability": "nonpayable",
      "type": "constructor"
    }
  ],
  "bytecode": "0x6060604052341561000f57600080fd5b60405160208061052e83398101604052808051906020019091905050806000806101000a81548173ffffffffffffffffffffffffffffffffffffffff021916908373ffffffffffffffffffffffffffffffffffffffff160217905550506104b38061007b6000396000f30060606040526004361061006d576000357c0100000000000000000000000000000000000000000000000000000000900463ffffffff1680631bf39d331461007257806356ad8d95146100b1578063a5183e59146100ff578063cc63afdf14610128578063ed9ddfd314610170575b600080fd5b341561007d57600080fd5b6100976004808035600019169060200190919050506101c2565b604051808215151515815260200191505060405180910390f35b34156100bc57600080fd5b6100d260048080359060200190919050506101f4565b60405180836000191660001916815260200182600019166000191681526020019250505060405180910390f35b341561010a57600080fd5b610112610254565b6040518082815260200191505060405180910390f35b341561013357600080fd5b61015a60048080356000191690602001909190803560001916906020019091905050610261565b6040518082815260200191505060405180910390f35b341561017b57600080fd5b61019560048080356000191690602001909190505061040a565b60405180836000191660001916815260200182600019166000191681526020019250505060405180910390f35b600081600019166002600084600019166000191681526020019081526020016000206001015460001916149050919050565b60008060018381548110151561020657fe5b9060005260206000209001546002600060018681548110151561022557fe5b906000526020600020900154600019166000191681526020019081526020016000206000015491509150915091565b6000600180549050905090565b60008060009054906101000a900473ffffffffffffffffffffffffffffffffffffffff1673ffffffffffffffffffffffffffffffffffffffff166315328f0f336000604051602001526040518263ffffffff167c0100000000000000000000000000000000000000000000000000000000028152600401808273ffffffffffffffffffffffffffffffffffffffff1673ffffffffffffffffffffffffffffffffffffffff168152602001915050602060405180830381600087803b151561032757600080fd5b6102c65a03f1151561033857600080fd5b50505060405180519050151561034d57600080fd5b82806000191660026000836000191660001916815260200190815260200160002060010154600019161415151561038357600080fd5b83600260008660001916600019168152602001908152602001600020600101816000191690555082600260008660001916600019168152602001908152602001600020600001816000191690555060018080548060010182816103e69190610436565b91600052602060002090016000879091909150906000191690550391505092915050565b600080826002600085600019166000191681526020019081526020016000206000015491509150915091565b81548183558181151161045d5781836000526020600020918201910161045c9190610462565b5b505050565b61048491905b80821115610480576000816000905550600101610468565b5090565b905600a165627a7a723058203d95789101157adb5c6863acd9cc092b3d413ec40aa865d16655b14a30aea78a0029",
  "source": "pragma solidity 0.4.18;\r\n\r\nimport \"./Team.sol\";\r\n\r\n\r\ncontract Location {\r\n    \r\n  struct LocationStruct {\r\n    bytes32 name;\r\n    bytes32 uri;\r\n  }\r\n\r\n  //************** Private Vars ***************//\r\n  //-------------------------------------------//\r\n  Team private team;\r\n\r\n  bytes32[] private uriList;\r\n  mapping(bytes32 => LocationStruct) private locationStructs;\r\n\r\n  //************** Constructor ****************//\r\n  //-------------------------------------------//\r\n  function Location(address teamAdr) public {\r\n    team = Team(teamAdr);\r\n  }\r\n\r\n  //************** Transactions ***************//\r\n  //-------------------------------------------//\r\n  function addLocation(bytes32 uri, bytes32 name) public\r\n    isMember()\r\n    uniqueUri(uri)\r\n    returns(uint index)\r\n  {\r\n    locationStructs[uri].uri = uri;\r\n    locationStructs[uri].name = name;\r\n    return uriList.push(uri) - 1;\r\n  }\r\n\r\n  //**************** Getter *******************//\r\n  //-------------------------------------------//\r\n  function getLocationByURI(bytes32 uri) public constant returns (bytes32, bytes32 name) {\r\n    // Not used for now, maybe change to getLocationNameByUri and use it in @getLocationAtIndex.\r\n    return (uri, locationStructs[uri].name);\r\n  }\r\n\r\n  function getLocationByIndex(uint index) public constant returns (bytes32 uri, bytes32 name) {\r\n    return (uriList[index], locationStructs[uriList[index]].name);\r\n  }\r\n\r\n  function getLocationCount() public constant returns (uint locationCount) {\r\n    return uriList.length;\r\n  }\r\n\r\n  function checkIfUriExists(bytes32 uri) public constant returns (bool exists) {\r\n    return locationStructs[uri].uri == uri;\r\n  }\r\n\r\n  //***************** Modifier ****************//\r\n  //-------------------------------------------//\r\n  modifier uniqueUri(bytes32 uri) {\r\n    require(locationStructs[uri].uri != uri);\r\n    _;\r\n  }\r\n\r\n  modifier isMember() { \r\n    require(team.checkMemberByAddress(msg.sender));\r\n    _;\r\n  }\r\n}\r\n",
  "sourcePath": "C:\\devAndroid\\Projects\\ws17-EthereumBlockchain\\contracts\\Location.sol",
  "compiler": {
    "name": "solc",
    "version": "0.4.18+commit.9cf6e910.Emscripten.clang"
  },
  "schemaVersion": "1.0.1",
  "updatedAt": "2018-01-15T09:08:27.973Z"
}