{
  "contractName": "Logging",
  "abi": [
    {
      "constant": false,
      "inputs": [
        {
          "name": "teamAddress",
          "type": "address"
        },
        {
          "name": "teamName",
          "type": "bytes32"
        }
      ],
      "name": "addTeam",
      "outputs": [],
      "payable": false,
      "stateMutability": "nonpayable",
      "type": "function"
    },
    {
      "constant": true,
      "inputs": [],
      "name": "getTeamAddressCount",
      "outputs": [
        {
          "name": "locationCount",
          "type": "uint256"
        }
      ],
      "payable": false,
      "stateMutability": "view",
      "type": "function"
    },
    {
      "constant": true,
      "inputs": [
        {
          "name": "index",
          "type": "uint256"
        }
      ],
      "name": "getTeamAddressByIndex",
      "outputs": [
        {
          "name": "teamAddress",
          "type": "address"
        },
        {
          "name": "teamName",
          "type": "bytes32"
        }
      ],
      "payable": false,
      "stateMutability": "view",
      "type": "function"
    },
    {
      "inputs": [],
      "payable": false,
      "stateMutability": "nonpayable",
      "type": "constructor"
    }
  ],
  "bytecode": "0x6060604052341561000f57600080fd5b6103ac8061001e6000396000f300606060405260043610610057576000357c0100000000000000000000000000000000000000000000000000000000900463ffffffff16806302725c5b1461005c57806346e5090b146100a25780639d0a05bc146100cb575b600080fd5b341561006757600080fd5b6100a0600480803573ffffffffffffffffffffffffffffffffffffffff169060200190919080356000191690602001909190505061013d565b005b34156100ad57600080fd5b6100b5610270565b6040518082815260200191505060405180910390f35b34156100d657600080fd5b6100ec600480803590602001909190505061027c565b604051808373ffffffffffffffffffffffffffffffffffffffff1673ffffffffffffffffffffffffffffffffffffffff16815260200182600019166000191681526020019250505060405180910390f35b81600160008473ffffffffffffffffffffffffffffffffffffffff1673ffffffffffffffffffffffffffffffffffffffff16815260200190815260200160002060000160006101000a81548173ffffffffffffffffffffffffffffffffffffffff021916908373ffffffffffffffffffffffffffffffffffffffff16021790555080600160008473ffffffffffffffffffffffffffffffffffffffff1673ffffffffffffffffffffffffffffffffffffffff16815260200190815260200160002060010181600019169055506000805480600101828161021d919061032f565b9160005260206000209001600084909190916101000a81548173ffffffffffffffffffffffffffffffffffffffff021916908373ffffffffffffffffffffffffffffffffffffffff160217905550505050565b60008080549050905090565b600080600060016000808681548110151561029357fe5b906000526020600020900160009054906101000a900473ffffffffffffffffffffffffffffffffffffffff1673ffffffffffffffffffffffffffffffffffffffff1673ffffffffffffffffffffffffffffffffffffffff16815260200190815260200160002090508060000160009054906101000a900473ffffffffffffffffffffffffffffffffffffffff1681600101549250925050915091565b81548183558181151161035657818360005260206000209182019101610355919061035b565b5b505050565b61037d91905b80821115610379576000816000905550600101610361565b5090565b905600a165627a7a7230582049fb5cd9b46918347126dd036f1de28e953027de1b5f2f57bd52dd7908c955930029",
  "source": "pragma solidity 0.4.18;\r\n\r\n\r\ncontract Logging {\r\n    \r\n  //************** Private Vars ***************//\r\n  //-------------------------------------------//\r\n\r\n  struct TeamStruct {\r\n    address team;\r\n    bytes32 name;\r\n  }\r\n\r\n  address[] private teamAddresses;\r\n  mapping(address => TeamStruct) private teamStructs;\r\n\r\n  //************** Constructor ****************//\r\n  //-------------------------------------------//\r\n  function Logging() public { }\r\n\r\n  //************** Transactions ***************//\r\n  //-------------------------------------------//\r\n  function addTeam(address teamAddress, bytes32 teamName) public\r\n  {\r\n    teamStructs[teamAddress].team = teamAddress;\r\n    teamStructs[teamAddress].name = teamName;\r\n    teamAddresses.push(teamAddress);\r\n  }\r\n\r\n  //**************** Getter *******************//\r\n  //-------------------------------------------//\r\n  function getTeamAddressByIndex(uint index) public constant\r\n  returns (address teamAddress, bytes32 teamName) {\r\n    TeamStruct storage t = teamStructs[teamAddresses[index]];\r\n    return (t.team, t.name);\r\n  }\r\n\r\n  function getTeamAddressCount() public constant returns (uint locationCount) {\r\n    return teamAddresses.length;\r\n  }\r\n\r\n}\r\n",
  "sourcePath": "C:\\devAndroid\\Projects\\ws17-EthereumBlockchain\\contracts\\Logging.sol",
  "compiler": {
    "name": "solc",
    "version": "0.4.18+commit.9cf6e910.Emscripten.clang"
  },
  "schemaVersion": "1.0.1",
  "updatedAt": "2018-01-17T11:38:13.954Z"
}