{
  "contractName": "Logging",
  "abi": [
    {
      "constant": true,
      "inputs": [],
      "name": "getTeamAddressCount",
      "outputs": [
        {
          "name": "locationCount",
          "type": "uint256"
        }
      ],
      "payable": false,
      "stateMutability": "view",
      "type": "function"
    },
    {
      "constant": true,
      "inputs": [
        {
          "name": "index",
          "type": "uint256"
        }
      ],
      "name": "getTeamAddressByIndex",
      "outputs": [
        {
          "name": "teamAddress",
          "type": "address"
        }
      ],
      "payable": false,
      "stateMutability": "view",
      "type": "function"
    },
    {
      "constant": false,
      "inputs": [
        {
          "name": "teamAddress",
          "type": "address"
        }
      ],
      "name": "addTeam",
      "outputs": [],
      "payable": false,
      "stateMutability": "nonpayable",
      "type": "function"
    },
    {
      "inputs": [],
      "payable": false,
      "stateMutability": "nonpayable",
      "type": "constructor"
    }
  ],
  "bytecode": "0x6060604052341561000f57600080fd5b6102538061001e6000396000f300606060405260043610610057576000357c0100000000000000000000000000000000000000000000000000000000900463ffffffff16806346e5090b1461005c5780639d0a05bc14610085578063b463a75c146100e8575b600080fd5b341561006757600080fd5b61006f610121565b6040518082815260200191505060405180910390f35b341561009057600080fd5b6100a6600480803590602001909190505061012d565b604051808273ffffffffffffffffffffffffffffffffffffffff1673ffffffffffffffffffffffffffffffffffffffff16815260200191505060405180910390f35b34156100f357600080fd5b61011f600480803573ffffffffffffffffffffffffffffffffffffffff16906020019091905050610170565b005b60008080549050905090565b6000808281548110151561013d57fe5b906000526020600020900160009054906101000a900473ffffffffffffffffffffffffffffffffffffffff169050919050565b6000805480600101828161018491906101d6565b9160005260206000209001600083909190916101000a81548173ffffffffffffffffffffffffffffffffffffffff021916908373ffffffffffffffffffffffffffffffffffffffff1602179055505050565b8154818355818115116101fd578183600052602060002091820191016101fc9190610202565b5b505050565b61022491905b80821115610220576000816000905550600101610208565b5090565b905600a165627a7a72305820ed02eb4a6a205b1d2976e9a1b3eecccc6c96fdb55d426a21b789e3222e56fa380029",
  "source": "pragma solidity 0.4.18;\r\n\r\n\r\ncontract Logging {\r\n    \r\n  //************** Private Vars ***************//\r\n  //-------------------------------------------//\r\n\r\n  address[] private teamList;\r\n\r\n  //************** Constructor ****************//\r\n  //-------------------------------------------//\r\n  function Logging() public { }\r\n\r\n  //************** Transactions ***************//\r\n  //-------------------------------------------//\r\n  function addTeam(address teamAddress) public\r\n  {\r\n    teamList.push(teamAddress);\r\n  }\r\n\r\n  //**************** Getter *******************//\r\n  //-------------------------------------------//\r\n  function getTeamAddressByIndex(uint index) public constant returns (address teamAddress) {\r\n    return (teamList[index]);\r\n  }\r\n\r\n  function getTeamAddressCount() public constant returns (uint locationCount) {\r\n    return teamList.length;\r\n  }\r\n\r\n}\r\n",
  "sourcePath": "C:\\devAndroid\\Projects\\ws17-EthereumBlockchain\\contracts\\Logging.sol",
  "compiler": {
    "name": "solc",
    "version": "0.4.18+commit.9cf6e910.Emscripten.clang"
  },
  "schemaVersion": "1.0.1",
  "updatedAt": "2018-01-12T09:44:08.560Z"
}