{
  "contractName": "Team",
  "abi": [
    {
      "constant": true,
      "inputs": [],
      "name": "getMembersCount",
      "outputs": [
        {
          "name": "memberCount",
          "type": "uint256"
        }
      ],
      "payable": false,
      "stateMutability": "view",
      "type": "function"
    },
    {
      "constant": true,
      "inputs": [],
      "name": "getPendingMembersCount",
      "outputs": [
        {
          "name": "pendingMembersCount",
          "type": "uint256"
        }
      ],
      "payable": false,
      "stateMutability": "view",
      "type": "function"
    },
    {
      "constant": false,
      "inputs": [
        {
          "name": "pendingMemberAccount",
          "type": "address"
        }
      ],
      "name": "acceptPendingMember",
      "outputs": [
        {
          "name": "memberName",
          "type": "bytes32"
        }
      ],
      "payable": false,
      "stateMutability": "nonpayable",
      "type": "function"
    },
    {
      "constant": false,
      "inputs": [
        {
          "name": "votingName",
          "type": "bytes32"
        }
      ],
      "name": "addVoting",
      "outputs": [],
      "payable": false,
      "stateMutability": "nonpayable",
      "type": "function"
    },
    {
      "constant": true,
      "inputs": [
        {
          "name": "addr",
          "type": "address"
        }
      ],
      "name": "checkMemberByAddress",
      "outputs": [
        {
          "name": "isMember",
          "type": "bool"
        }
      ],
      "payable": false,
      "stateMutability": "view",
      "type": "function"
    },
    {
      "constant": true,
      "inputs": [
        {
          "name": "index",
          "type": "uint256"
        }
      ],
      "name": "getClosedVotingByIndex",
      "outputs": [
        {
          "name": "votingAddress",
          "type": "address"
        }
      ],
      "payable": false,
      "stateMutability": "view",
      "type": "function"
    },
    {
      "constant": true,
      "inputs": [
        {
          "name": "adr",
          "type": "address"
        }
      ],
      "name": "getPendingMemberByAddress",
      "outputs": [
        {
          "name": "account",
          "type": "address"
        },
        {
          "name": "name",
          "type": "bytes32"
        },
        {
          "name": "avatarId",
          "type": "uint256"
        },
        {
          "name": "invitationToken",
          "type": "bytes32"
        }
      ],
      "payable": false,
      "stateMutability": "view",
      "type": "function"
    },
    {
      "constant": true,
      "inputs": [
        {
          "name": "adr",
          "type": "address"
        }
      ],
      "name": "getMemberByAddress",
      "outputs": [
        {
          "name": "account",
          "type": "address"
        },
        {
          "name": "name",
          "type": "bytes32"
        },
        {
          "name": "avatarId",
          "type": "uint256"
        }
      ],
      "payable": false,
      "stateMutability": "view",
      "type": "function"
    },
    {
      "constant": false,
      "inputs": [
        {
          "name": "token",
          "type": "bytes32"
        },
        {
          "name": "memberName",
          "type": "bytes32"
        },
        {
          "name": "avatarId",
          "type": "uint256"
        }
      ],
      "name": "sendJoinTeamRequest",
      "outputs": [],
      "payable": false,
      "stateMutability": "nonpayable",
      "type": "function"
    },
    {
      "constant": true,
      "inputs": [],
      "name": "getClosedVotingsCount",
      "outputs": [
        {
          "name": "memberCount",
          "type": "uint256"
        }
      ],
      "payable": false,
      "stateMutability": "view",
      "type": "function"
    },
    {
      "constant": true,
      "inputs": [
        {
          "name": "index",
          "type": "uint256"
        }
      ],
      "name": "getPendingMemberByIndex",
      "outputs": [
        {
          "name": "account",
          "type": "address"
        },
        {
          "name": "name",
          "type": "bytes32"
        },
        {
          "name": "avatarId",
          "type": "uint256"
        },
        {
          "name": "invitationToken",
          "type": "bytes32"
        }
      ],
      "payable": false,
      "stateMutability": "view",
      "type": "function"
    },
    {
      "constant": false,
      "inputs": [
        {
          "name": "votingAddress",
          "type": "address"
        }
      ],
      "name": "closeVotingStochastic",
      "outputs": [],
      "payable": false,
      "stateMutability": "nonpayable",
      "type": "function"
    },
    {
      "constant": true,
      "inputs": [],
      "name": "teamName",
      "outputs": [
        {
          "name": "",
          "type": "bytes32"
        }
      ],
      "payable": false,
      "stateMutability": "view",
      "type": "function"
    },
    {
      "constant": false,
      "inputs": [],
      "name": "createInvitationToken",
      "outputs": [
        {
          "name": "token",
          "type": "bytes32"
        }
      ],
      "payable": false,
      "stateMutability": "nonpayable",
      "type": "function"
    },
    {
      "constant": true,
      "inputs": [
        {
          "name": "index",
          "type": "uint256"
        }
      ],
      "name": "getMemberByIndex",
      "outputs": [
        {
          "name": "account",
          "type": "address"
        },
        {
          "name": "name",
          "type": "bytes32"
        },
        {
          "name": "avatarId",
          "type": "uint256"
        }
      ],
      "payable": false,
      "stateMutability": "view",
      "type": "function"
    },
    {
      "constant": true,
      "inputs": [],
      "name": "getTeamName",
      "outputs": [
        {
          "name": "votingName",
          "type": "bytes32"
        }
      ],
      "payable": false,
      "stateMutability": "view",
      "type": "function"
    },
    {
      "constant": true,
      "inputs": [],
      "name": "getLocationAddress",
      "outputs": [
        {
          "name": "locationAddr",
          "type": "address"
        }
      ],
      "payable": false,
      "stateMutability": "view",
      "type": "function"
    },
    {
      "constant": true,
      "inputs": [],
      "name": "getVotingsCount",
      "outputs": [
        {
          "name": "memberCount",
          "type": "uint256"
        }
      ],
      "payable": false,
      "stateMutability": "view",
      "type": "function"
    },
    {
      "constant": true,
      "inputs": [
        {
          "name": "index",
          "type": "uint256"
        }
      ],
      "name": "getVotingByIndex",
      "outputs": [
        {
          "name": "votingAddress",
          "type": "address"
        }
      ],
      "payable": false,
      "stateMutability": "view",
      "type": "function"
    },
    {
      "inputs": [
        {
          "name": "_name",
          "type": "bytes32"
        },
        {
          "name": "creatorName",
          "type": "bytes32"
        },
        {
          "name": "creatorAvatarId",
          "type": "uint256"
        }
      ],
      "payable": false,
      "stateMutability": "nonpayable",
      "type": "constructor"
    },
    {
      "anonymous": false,
      "inputs": [
        {
          "indexed": false,
          "name": "token",
          "type": "bytes32"
        }
      ],
      "name": "TokenCreated",
      "type": "event"
    },
    {
      "anonymous": false,
      "inputs": [
        {
          "indexed": false,
          "name": "user",
          "type": "address"
        }
      ],
      "name": "NewJoinRequest",
      "type": "event"
    },
    {
      "anonymous": false,
      "inputs": [
        {
          "indexed": false,
          "name": "votingAddress",
          "type": "address"
        }
      ],
      "name": "VotingCreated",
      "type": "event"
    }
  ],
  "bytecode": "0x606060405234156200001057600080fd5b604051606080620031f283398101604052808051906020019091908051906020019091908051906020019091905050826000816000191690555033600660003373ffffffffffffffffffffffffffffffffffffffff1673ffffffffffffffffffffffffffffffffffffffff16815260200190815260200160002060000160006101000a81548173ffffffffffffffffffffffffffffffffffffffff021916908373ffffffffffffffffffffffffffffffffffffffff16021790555081600660003373ffffffffffffffffffffffffffffffffffffffff1673ffffffffffffffffffffffffffffffffffffffff168152602001908152602001600020600101816000191690555080600660003373ffffffffffffffffffffffffffffffffffffffff1673ffffffffffffffffffffffffffffffffffffffff168152602001908152602001600020600201819055506005805480600101828162000173919062000263565b9160005260206000209001600033909190916101000a81548173ffffffffffffffffffffffffffffffffffffffff021916908373ffffffffffffffffffffffffffffffffffffffff1602179055505030620001cd62000292565b808273ffffffffffffffffffffffffffffffffffffffff1673ffffffffffffffffffffffffffffffffffffffff168152602001915050604051809103906000f08015156200021a57600080fd5b600160006101000a81548173ffffffffffffffffffffffffffffffffffffffff021916908373ffffffffffffffffffffffffffffffffffffffff160217905550505050620002cb565b8154818355818115116200028d578183600052602060002091820191016200028c9190620002a3565b5b505050565b60405161052e8062002cc483390190565b620002c891905b80821115620002c4576000816000905550600101620002aa565b5090565b90565b6129e980620002db6000396000f300606060405260043610610107576000357c0100000000000000000000000000000000000000000000000000000000900463ffffffff16806309772f8f1461010c5780630ecbd5c2146101355780631078b16c1461015e5780631456b283146101b357806315328f0f146101da578063269097861461022b5780633b3c79db1461028e5780633dd9899f1461032c57806342e11974146103bb5780634cbf475f146103f85780636d50c9aa146104215780637d2ed46a146104a957806382474b1b146104e2578063bc47587314610513578063bce73b4514610544578063bf09fdab146105bd578063c45bf3cc146105ee578063dae7c92c14610643578063ec1440391461066c575b600080fd5b341561011757600080fd5b61011f6106cf565b6040518082815260200191505060405180910390f35b341561014057600080fd5b6101486106dc565b6040518082815260200191505060405180910390f35b341561016957600080fd5b610195600480803573ffffffffffffffffffffffffffffffffffffffff169060200190919050506106e9565b60405180826000191660001916815260200191505060405180910390f35b34156101be57600080fd5b6101d8600480803560001916906020019091905050610a8e565b005b34156101e557600080fd5b610211600480803573ffffffffffffffffffffffffffffffffffffffff16906020019091905050610c81565b604051808215151515815260200191505060405180910390f35b341561023657600080fd5b61024c6004808035906020019091905050610d1b565b604051808273ffffffffffffffffffffffffffffffffffffffff1673ffffffffffffffffffffffffffffffffffffffff16815260200191505060405180910390f35b341561029957600080fd5b6102c5600480803573ffffffffffffffffffffffffffffffffffffffff16906020019091905050610d5f565b604051808573ffffffffffffffffffffffffffffffffffffffff1673ffffffffffffffffffffffffffffffffffffffff1681526020018460001916600019168152602001838152602001826000191660001916815260200194505050505060405180910390f35b341561033757600080fd5b610363600480803573ffffffffffffffffffffffffffffffffffffffff16906020019091905050610dec565b604051808473ffffffffffffffffffffffffffffffffffffffff1673ffffffffffffffffffffffffffffffffffffffff1681526020018360001916600019168152602001828152602001935050505060405180910390f35b34156103c657600080fd5b6103f660048080356000191690602001909190803560001916906020019091908035906020019091905050610e70565b005b341561040357600080fd5b61040b611248565b6040518082815260200191505060405180910390f35b341561042c57600080fd5b6104426004808035906020019091905050611255565b604051808573ffffffffffffffffffffffffffffffffffffffff1673ffffffffffffffffffffffffffffffffffffffff1681526020018460001916600019168152602001838152602001826000191660001916815260200194505050505060405180910390f35b34156104b457600080fd5b6104e0600480803573ffffffffffffffffffffffffffffffffffffffff1690602001909190505061131c565b005b34156104ed57600080fd5b6104f5611443565b60405180826000191660001916815260200191505060405180910390f35b341561051e57600080fd5b610526611449565b60405180826000191660001916815260200191505060405180910390f35b341561054f57600080fd5b610565600480803590602001909190505061156c565b604051808473ffffffffffffffffffffffffffffffffffffffff1673ffffffffffffffffffffffffffffffffffffffff1681526020018360001916600019168152602001828152602001935050505060405180910390f35b34156105c857600080fd5b6105d061162a565b60405180826000191660001916815260200191505060405180910390f35b34156105f957600080fd5b610601611633565b604051808273ffffffffffffffffffffffffffffffffffffffff1673ffffffffffffffffffffffffffffffffffffffff16815260200191505060405180910390f35b341561064e57600080fd5b61065661165d565b6040518082815260200191505060405180910390f35b341561067757600080fd5b61068d600480803590602001909190505061166a565b604051808273ffffffffffffffffffffffffffffffffffffffff1673ffffffffffffffffffffffffffffffffffffffff16815260200191505060405180910390f35b6000600580549050905090565b6000600780549050905090565b6000338073ffffffffffffffffffffffffffffffffffffffff16600660008373ffffffffffffffffffffffffffffffffffffffff1673ffffffffffffffffffffffffffffffffffffffff16815260200190815260200160002060000160009054906101000a900473ffffffffffffffffffffffffffffffffffffffff1673ffffffffffffffffffffffffffffffffffffffff1614151561078857600080fd5b338073ffffffffffffffffffffffffffffffffffffffff16600860008373ffffffffffffffffffffffffffffffffffffffff1673ffffffffffffffffffffffffffffffffffffffff16815260200190815260200160002060000160009054906101000a900473ffffffffffffffffffffffffffffffffffffffff1673ffffffffffffffffffffffffffffffffffffffff161415151561082657600080fd5b838073ffffffffffffffffffffffffffffffffffffffff16600860008373ffffffffffffffffffffffffffffffffffffffff1673ffffffffffffffffffffffffffffffffffffffff16815260200190815260200160002060000160009054906101000a900473ffffffffffffffffffffffffffffffffffffffff1673ffffffffffffffffffffffffffffffffffffffff161415156108c357600080fd5b600580548060010182816108d79190611b3e565b9160005260206000209001600087909190916101000a81548173ffffffffffffffffffffffffffffffffffffffff021916908373ffffffffffffffffffffffffffffffffffffffff16021790555050600860008673ffffffffffffffffffffffffffffffffffffffff1673ffffffffffffffffffffffffffffffffffffffff168152602001908152602001600020600660008773ffffffffffffffffffffffffffffffffffffffff1673ffffffffffffffffffffffffffffffffffffffff1681526020019081526020016000206000820160009054906101000a900473ffffffffffffffffffffffffffffffffffffffff168160000160006101000a81548173ffffffffffffffffffffffffffffffffffffffff021916908373ffffffffffffffffffffffffffffffffffffffff160217905550600182015481600101906000191690556002820154816002015560038201548160030190600019169055905050610a41856116ae565b600660008673ffffffffffffffffffffffffffffffffffffffff1673ffffffffffffffffffffffffffffffffffffffff168152602001908152602001600020600101549350505050919050565b6000338073ffffffffffffffffffffffffffffffffffffffff16600660008373ffffffffffffffffffffffffffffffffffffffff1673ffffffffffffffffffffffffffffffffffffffff16815260200190815260200160002060000160009054906101000a900473ffffffffffffffffffffffffffffffffffffffff1673ffffffffffffffffffffffffffffffffffffffff16141515610b2d57600080fd5b82600160009054906101000a900473ffffffffffffffffffffffffffffffffffffffff16610b59611b6a565b8083600019166000191681526020018273ffffffffffffffffffffffffffffffffffffffff1673ffffffffffffffffffffffffffffffffffffffff16815260200192505050604051809103906000f0801515610bb457600080fd5b915060028054806001018281610bca9190611b3e565b9160005260206000209001600084909190916101000a81548173ffffffffffffffffffffffffffffffffffffffff021916908373ffffffffffffffffffffffffffffffffffffffff160217905550507f8d59e26d1a30e4599d9266c3cc51905634249f88e542c997ce6769cf0c91e1db82604051808273ffffffffffffffffffffffffffffffffffffffff1673ffffffffffffffffffffffffffffffffffffffff16815260200191505060405180910390a1505050565b60008173ffffffffffffffffffffffffffffffffffffffff16600660008473ffffffffffffffffffffffffffffffffffffffff1673ffffffffffffffffffffffffffffffffffffffff16815260200190815260200160002060000160009054906101000a900473ffffffffffffffffffffffffffffffffffffffff1673ffffffffffffffffffffffffffffffffffffffff16149050919050565b6000600382815481101515610d2c57fe5b906000526020600020900160009054906101000a900473ffffffffffffffffffffffffffffffffffffffff169050919050565b6000806000806000600860008773ffffffffffffffffffffffffffffffffffffffff1673ffffffffffffffffffffffffffffffffffffffff16815260200190815260200160002090508060000160009054906101000a900473ffffffffffffffffffffffffffffffffffffffff168160010154826002015483600301549450945094509450509193509193565b600080600080600660008673ffffffffffffffffffffffffffffffffffffffff1673ffffffffffffffffffffffffffffffffffffffff16815260200190815260200160002090508060000160009054906101000a900473ffffffffffffffffffffffffffffffffffffffff1681600101548260020154935093509350509193909250565b338073ffffffffffffffffffffffffffffffffffffffff16600660008373ffffffffffffffffffffffffffffffffffffffff1673ffffffffffffffffffffffffffffffffffffffff16815260200190815260200160002060000160009054906101000a900473ffffffffffffffffffffffffffffffffffffffff1673ffffffffffffffffffffffffffffffffffffffff1614151515610f0e57600080fd5b338073ffffffffffffffffffffffffffffffffffffffff16600860008373ffffffffffffffffffffffffffffffffffffffff1673ffffffffffffffffffffffffffffffffffffffff16815260200190815260200160002060000160009054906101000a900473ffffffffffffffffffffffffffffffffffffffff1673ffffffffffffffffffffffffffffffffffffffff1614151515610fac57600080fd5b846001151560046000836000191660001916815260200190815260200160002060009054906101000a900460ff161515141515610fe857600080fd5b600060046000886000191660001916815260200190815260200160002060006101000a81548160ff02191690831515021790555033600860003373ffffffffffffffffffffffffffffffffffffffff1673ffffffffffffffffffffffffffffffffffffffff16815260200190815260200160002060000160006101000a81548173ffffffffffffffffffffffffffffffffffffffff021916908373ffffffffffffffffffffffffffffffffffffffff16021790555084600860003373ffffffffffffffffffffffffffffffffffffffff1673ffffffffffffffffffffffffffffffffffffffff168152602001908152602001600020600101816000191690555085600860003373ffffffffffffffffffffffffffffffffffffffff1673ffffffffffffffffffffffffffffffffffffffff168152602001908152602001600020600301816000191690555083600860003373ffffffffffffffffffffffffffffffffffffffff1673ffffffffffffffffffffffffffffffffffffffff168152602001908152602001600020600201819055506007805480600101828161118e9190611b3e565b9160005260206000209001600033909190916101000a81548173ffffffffffffffffffffffffffffffffffffffff021916908373ffffffffffffffffffffffffffffffffffffffff160217905550507f1f53306ac436aea3b3133ea9ec00fbdcf2d6d8004023cc96887262c29a8c20f133604051808273ffffffffffffffffffffffffffffffffffffffff1673ffffffffffffffffffffffffffffffffffffffff16815260200191505060405180910390a1505050505050565b6000600380549050905090565b60008060008060006008600060078881548110151561127057fe5b906000526020600020900160009054906101000a900473ffffffffffffffffffffffffffffffffffffffff1673ffffffffffffffffffffffffffffffffffffffff1673ffffffffffffffffffffffffffffffffffffffff16815260200190815260200160002090508060000160009054906101000a900473ffffffffffffffffffffffffffffffffffffffff168160010154826002015483600301549450945094509450509193509193565b6000338073ffffffffffffffffffffffffffffffffffffffff16600660008373ffffffffffffffffffffffffffffffffffffffff1673ffffffffffffffffffffffffffffffffffffffff16815260200190815260200160002060000160009054906101000a900473ffffffffffffffffffffffffffffffffffffffff1673ffffffffffffffffffffffffffffffffffffffff161415156113bb57600080fd5b8291508173ffffffffffffffffffffffffffffffffffffffff1663fa7eb56b6040518163ffffffff167c0100000000000000000000000000000000000000000000000000000000028152600401600060405180830381600087803b151561142157600080fd5b6102c65a03f1151561143257600080fd5b50505061143e836118ed565b505050565b60005481565b6000338073ffffffffffffffffffffffffffffffffffffffff16600660008373ffffffffffffffffffffffffffffffffffffffff1673ffffffffffffffffffffffffffffffffffffffff16815260200190815260200160002060000160009054906101000a900473ffffffffffffffffffffffffffffffffffffffff1673ffffffffffffffffffffffffffffffffffffffff161415156114e857600080fd5b6114f0611b15565b9150600160046000846000191660001916815260200190815260200160002060006101000a81548160ff0219169083151502179055507fc4c87906c57fc8d5e7d82b8c8a6b03434c703790205dd5cf2ff4e07d9548dd568260405180826000191660001916815260200191505060405180910390a18191505090565b6000806000806006600060058781548110151561158557fe5b906000526020600020900160009054906101000a900473ffffffffffffffffffffffffffffffffffffffff1673ffffffffffffffffffffffffffffffffffffffff1673ffffffffffffffffffffffffffffffffffffffff16815260200190815260200160002090508060000160009054906101000a900473ffffffffffffffffffffffffffffffffffffffff1681600101548260020154935093509350509193909250565b60008054905090565b6000600160009054906101000a900473ffffffffffffffffffffffffffffffffffffffff16905090565b6000600280549050905090565b600060028281548110151561167b57fe5b906000526020600020900160009054906101000a900473ffffffffffffffffffffffffffffffffffffffff169050919050565b60008060008060009350600092508391505b600160078054905003821015611753578473ffffffffffffffffffffffffffffffffffffffff166007838154811015156116f657fe5b906000526020600020900160009054906101000a900473ffffffffffffffffffffffffffffffffffffffff1673ffffffffffffffffffffffffffffffffffffffff16141561174657600192508093505b81806001019250506116c0565b8390505b60016007805490500381101561180a5760076001820181548110151561177957fe5b906000526020600020900160009054906101000a900473ffffffffffffffffffffffffffffffffffffffff166007828154811015156117b457fe5b906000526020600020900160006101000a81548173ffffffffffffffffffffffffffffffffffffffff021916908373ffffffffffffffffffffffffffffffffffffffff1602179055508080600101915050611757565b600760016007805490500381548110151561182157fe5b906000526020600020900160006101000a81549073ffffffffffffffffffffffffffffffffffffffff021916905560078054809190600190036118649190611b7a565b50600860008673ffffffffffffffffffffffffffffffffffffffff1673ffffffffffffffffffffffffffffffffffffffff168152602001908152602001600020600080820160006101000a81549073ffffffffffffffffffffffffffffffffffffffff021916905560018201600090556002820160009055600382016000905550505050505050565b60008060008060009350600092508391505b600160028054905003821015611992578473ffffffffffffffffffffffffffffffffffffffff1660028381548110151561193557fe5b906000526020600020900160009054906101000a900473ffffffffffffffffffffffffffffffffffffffff1673ffffffffffffffffffffffffffffffffffffffff16141561198557600192508093505b81806001019250506118ff565b8215611b0e578390505b600160028054905003811015611a4f576002600182018154811015156119be57fe5b906000526020600020900160009054906101000a900473ffffffffffffffffffffffffffffffffffffffff166002828154811015156119f957fe5b906000526020600020900160006101000a81548173ffffffffffffffffffffffffffffffffffffffff021916908373ffffffffffffffffffffffffffffffffffffffff160217905550808060010191505061199c565b6002600160028054905003815481101515611a6657fe5b906000526020600020900160006101000a81549073ffffffffffffffffffffffffffffffffffffffff02191690556002805480919060019003611aa99190611b7a565b5060038054806001018281611abe9190611b3e565b9160005260206000209001600087909190916101000a81548173ffffffffffffffffffffffffffffffffffffffff021916908373ffffffffffffffffffffffffffffffffffffffff160217905550505b5050505050565b600060014303406040518082600019166000191681526020019150506040518091039020905090565b815481835581811511611b6557818360005260206000209182019101611b649190611ba6565b5b505050565b604051610df280611bcc83390190565b815481835581811511611ba157818360005260206000209182019101611ba09190611ba6565b5b505050565b611bc891905b80821115611bc4576000816000905550600101611bac565b5090565b90560060606040526000600160006101000a81548160ff021916908315150217905550341561002a57600080fd5b604051604080610df28339810160405280805190602001909190805190602001909190505033600960006101000a81548173ffffffffffffffffffffffffffffffffffffffff021916908373ffffffffffffffffffffffffffffffffffffffff160217905550600960009054906101000a900473ffffffffffffffffffffffffffffffffffffffff16600860006101000a81548173ffffffffffffffffffffffffffffffffffffffff021916908373ffffffffffffffffffffffffffffffffffffffff16021790555080600760006101000a81548173ffffffffffffffffffffffffffffffffffffffff021916908373ffffffffffffffffffffffffffffffffffffffff16021790555081600081600019169055505050610ca2806101506000396000f3006060604052600436106100c5576000357c0100000000000000000000000000000000000000000000000000000000900463ffffffff16806305fb367f146100ca57806306fdde0314610134578063434a82401461016557806369d2096e1461018e5780637a59e337146101be5780639ed8bc8c14610204578063cc047b8c1461022d578063cc6c13951461025e578063d329c9b1146102a8578063d95145e814610328578063da1a18e014610355578063fa7eb56b14610386578063fd73788a1461039b575b600080fd5b34156100d557600080fd5b6100eb60048080359060200190919050506103cc565b604051808373ffffffffffffffffffffffffffffffffffffffff1673ffffffffffffffffffffffffffffffffffffffff1681526020018281526020019250505060405180910390f35b341561013f57600080fd5b61014761048d565b60405180826000191660001916815260200191505060405180910390f35b341561017057600080fd5b610178610493565b6040518082815260200191505060405180910390f35b341561019957600080fd5b6101bc6004808035600019169060200190919080359060200190919050506104a0565b005b34156101c957600080fd5b6101df60048080359060200190919050506108c1565b6040518083600019166000191681526020018281526020019250505060405180910390f35b341561020f57600080fd5b61021761091e565b6040518082815260200191505060405180910390f35b341561023857600080fd5b61024061092b565b60405180826000191660001916815260200191505060405180910390f35b341561026957600080fd5b610283600480803560001916906020019091905050610935565b6040518083600019166000191681526020018281526020019250505060405180910390f35b34156102b357600080fd5b6102df600480803573ffffffffffffffffffffffffffffffffffffffff1690602001909190505061095e565b604051808373ffffffffffffffffffffffffffffffffffffffff1673ffffffffffffffffffffffffffffffffffffffff1681526020018281526020019250505060405180910390f35b341561033357600080fd5b61033b6109ab565b604051808215151515815260200191505060405180910390f35b341561036057600080fd5b6103686109be565b60405180826000191660001916815260200191505060405180910390f35b341561039157600080fd5b6103996109c4565b005b34156103a657600080fd5b6103ae610bcb565b60405180826000191660001916815260200191505060405180910390f35b6000806003838154811015156103de57fe5b906000526020600020900160009054906101000a900473ffffffffffffffffffffffffffffffffffffffff166004600060038681548110151561041d57fe5b906000526020600020900160009054906101000a900473ffffffffffffffffffffffffffffffffffffffff1673ffffffffffffffffffffffffffffffffffffffff1673ffffffffffffffffffffffffffffffffffffffff1681526020019081526020016000205491509150915091565b60005481565b6000600380549050905090565b600860009054906101000a900473ffffffffffffffffffffffffffffffffffffffff1673ffffffffffffffffffffffffffffffffffffffff166315328f0f336000604051602001526040518263ffffffff167c0100000000000000000000000000000000000000000000000000000000028152600401808273ffffffffffffffffffffffffffffffffffffffff1673ffffffffffffffffffffffffffffffffffffffff168152602001915050602060405180830381600087803b151561056557600080fd5b6102c65a03f1151561057657600080fd5b50505060405180519050151561058b57600080fd5b81600760009054906101000a900473ffffffffffffffffffffffffffffffffffffffff1673ffffffffffffffffffffffffffffffffffffffff16631bf39d33826000604051602001526040518263ffffffff167c0100000000000000000000000000000000000000000000000000000000028152600401808260001916600019168152602001915050602060405180830381600087803b151561062d57600080fd5b6102c65a03f1151561063e57600080fd5b50505060405180519050151561065357600080fd5b600160009054906101000a900460ff1615151561066f57600080fd5b81600081118015610681575060648111155b151561068c57600080fd5b82606481600460003373ffffffffffffffffffffffffffffffffffffffff1673ffffffffffffffffffffffffffffffffffffffff1681526020019081526020016000205401111515156106de57600080fd5b6000600460003373ffffffffffffffffffffffffffffffffffffffff1673ffffffffffffffffffffffffffffffffffffffff1681526020019081526020016000205414156107cf576003805480600101828161073a9190610bd4565b9160005260206000209001600033909190916101000a81548173ffffffffffffffffffffffffffffffffffffffff021916908373ffffffffffffffffffffffffffffffffffffffff160217905550506000600460003373ffffffffffffffffffffffffffffffffffffffff1673ffffffffffffffffffffffffffffffffffffffff168152602001908152602001600020819055505b83600460003373ffffffffffffffffffffffffffffffffffffffff1673ffffffffffffffffffffffffffffffffffffffff16815260200190815260200160002060008282540192505081905550600060066000876000191660001916815260200190815260200160002054141561089157600580548060010182816108549190610c00565b9160005260206000209001600087909190915090600019169055506000600660008760001916600019168152602001908152602001600020819055505b83600660008760001916600019168152602001908152602001600020600082825401925050819055505050505050565b6000806005838154811015156108d357fe5b906000526020600020900154600660006005868154811015156108f257fe5b906000526020600020900154600019166000191681526020019081526020016000205491509150915091565b6000600580549050905090565b6000600254905090565b600080826006600085600019166000191681526020019081526020016000205491509150915091565b60008082600460008573ffffffffffffffffffffffffffffffffffffffff1673ffffffffffffffffffffffffffffffffffffffff1681526020019081526020016000205491509150915091565b600160009054906101000a900460ff1681565b60025481565b60008060008060003373ffffffffffffffffffffffffffffffffffffffff16600960009054906101000a900473ffffffffffffffffffffffffffffffffffffffff1673ffffffffffffffffffffffffffffffffffffffff16141515610a2857600080fd5b600160009054906101000a900460ff16151515610a4457600080fd5b60018060006101000a81548160ff02191690831515021790555060009450600093505b600580549050841015610abb5760066000600586815481101515610a8757fe5b9060005260206000209001546000191660001916815260200190815260200160002054850194508380600101945050610a67565b600085111515610aca57600080fd5b600185600143034060019004811515610adf57fe5b0601925060009150600090505b600580549050811015610bc45760066000600583815481101515610b0c57fe5b9060005260206000209001546000191660001916815260200190815260200160002054820191508282101515610bb757600581815481101515610b4b57fe5b906000526020600020900154600281600019169055507f69306b523997a2985b104c94bc0c7f52092d494b749c7b15027ef1614cf2629a6002548487604051808460001916600019168152602001838152602001828152602001935050505060405180910390a1610bc4565b8080600101915050610aec565b5050505050565b60008054905090565b815481835581811511610bfb57818360005260206000209182019101610bfa9190610c2c565b5b505050565b815481835581811511610c2757818360005260206000209182019101610c269190610c51565b5b505050565b610c4e91905b80821115610c4a576000816000905550600101610c32565b5090565b90565b610c7391905b80821115610c6f576000816000905550600101610c57565b5090565b905600a165627a7a72305820d5ffc0e5050c04de0578e87069767e2120f82b6133764cea8b295137cab5b9450029a165627a7a72305820ce5d1d71a3822f577d3ce04f4313f951739b3b8cebc87b9061dbeec256f351ab00296060604052341561000f57600080fd5b60405160208061052e83398101604052808051906020019091905050806000806101000a81548173ffffffffffffffffffffffffffffffffffffffff021916908373ffffffffffffffffffffffffffffffffffffffff160217905550506104b38061007b6000396000f30060606040526004361061006d576000357c0100000000000000000000000000000000000000000000000000000000900463ffffffff1680631bf39d331461007257806356ad8d95146100b1578063a5183e59146100ff578063cc63afdf14610128578063ed9ddfd314610170575b600080fd5b341561007d57600080fd5b6100976004808035600019169060200190919050506101c2565b604051808215151515815260200191505060405180910390f35b34156100bc57600080fd5b6100d260048080359060200190919050506101f4565b60405180836000191660001916815260200182600019166000191681526020019250505060405180910390f35b341561010a57600080fd5b610112610254565b6040518082815260200191505060405180910390f35b341561013357600080fd5b61015a60048080356000191690602001909190803560001916906020019091905050610261565b6040518082815260200191505060405180910390f35b341561017b57600080fd5b61019560048080356000191690602001909190505061040a565b60405180836000191660001916815260200182600019166000191681526020019250505060405180910390f35b600081600019166002600084600019166000191681526020019081526020016000206001015460001916149050919050565b60008060018381548110151561020657fe5b9060005260206000209001546002600060018681548110151561022557fe5b906000526020600020900154600019166000191681526020019081526020016000206000015491509150915091565b6000600180549050905090565b60008060009054906101000a900473ffffffffffffffffffffffffffffffffffffffff1673ffffffffffffffffffffffffffffffffffffffff166315328f0f336000604051602001526040518263ffffffff167c0100000000000000000000000000000000000000000000000000000000028152600401808273ffffffffffffffffffffffffffffffffffffffff1673ffffffffffffffffffffffffffffffffffffffff168152602001915050602060405180830381600087803b151561032757600080fd5b6102c65a03f1151561033857600080fd5b50505060405180519050151561034d57600080fd5b82806000191660026000836000191660001916815260200190815260200160002060010154600019161415151561038357600080fd5b83600260008660001916600019168152602001908152602001600020600101816000191690555082600260008660001916600019168152602001908152602001600020600001816000191690555060018080548060010182816103e69190610436565b91600052602060002090016000879091909150906000191690550391505092915050565b600080826002600085600019166000191681526020019081526020016000206000015491509150915091565b81548183558181151161045d5781836000526020600020918201910161045c9190610462565b5b505050565b61048491905b80821115610480576000816000905550600101610468565b5090565b905600a165627a7a72305820ede1a779bf441b3a41e13aab9503f43f7d6dc8b8e753f9ab564e08980cd2fc790029",
  "source": "pragma solidity 0.4.18;\r\n\r\nimport \"./Location.sol\";\r\nimport \"./Voting.sol\";\r\n\r\n\r\ncontract Team {\r\n\r\n  struct MemberStruct {\r\n    address account;\r\n    bytes32 name;\r\n    uint avatarId;\r\n    bytes32 invitationToken;\r\n  }\r\n\r\n  //*************** Public Vars ***************//\r\n  //-------------------------------------------//\r\n  bytes32 public teamName;\r\n\r\n  //************** Private Vars ***************//\r\n  //-------------------------------------------//\r\n  address private locationAddress;\r\n  address[] private votingAddresses;\r\n  address[] private closedVotingAddresses;\r\n \r\n  mapping (bytes32 => bool) private invitationTokens;\r\n\r\n  address[] private memberAddresses;\r\n  mapping (address => MemberStruct) private memberStructs;\r\n\r\n  address[] private pendingMemberAddresses;\r\n  mapping (address => MemberStruct) private pendingMemberStructs;\r\n\r\n  //***************** Events ******************//\r\n  //-------------------------------------------//\r\n\r\n  event TokenCreated(bytes32 token);\r\n  event NewJoinRequest(address user);\r\n  event VotingCreated(address votingAddress);\r\n\r\n  //************** Constructor ****************//\r\n  //-------------------------------------------//\r\n  function Team (bytes32 _name, bytes32 creatorName, uint creatorAvatarId) public {\r\n    teamName = _name;\r\n    memberStructs[msg.sender].account = msg.sender;\r\n    memberStructs[msg.sender].name = creatorName;\r\n    memberStructs[msg.sender].avatarId = creatorAvatarId;\r\n    memberAddresses.push(msg.sender);\r\n    locationAddress = new Location(address(this));\r\n  }\r\n\r\n  //************** Transactions ***************//\r\n  //-------------------------------------------//\r\n  function createInvitationToken() public \r\n    isAMember(msg.sender)\r\n    returns (bytes32 token) \r\n  {\r\n    token = generateToken();\r\n    invitationTokens[token] = true;\r\n    TokenCreated(token);\r\n    return token;\r\n  }\r\n\r\n  function sendJoinTeamRequest(bytes32 token, bytes32 memberName, uint avatarId) public \r\n    isNotAMember(msg.sender)\r\n    isNotAPendingMember(msg.sender)\r\n    isValidInvitationToken(token)\r\n  {\r\n\r\n    invitationTokens[token] = false;\r\n\r\n    pendingMemberStructs[msg.sender].account = msg.sender;\r\n    pendingMemberStructs[msg.sender].name = memberName;\r\n    pendingMemberStructs[msg.sender].invitationToken = token;\r\n    pendingMemberStructs[msg.sender].avatarId = avatarId;\r\n    pendingMemberAddresses.push(msg.sender);\r\n    NewJoinRequest(msg.sender);\r\n  }\r\n\r\n  function acceptPendingMember(address pendingMemberAccount) public \r\n    isAMember(msg.sender)\r\n    isNotAPendingMember(msg.sender)\r\n    isAPendingMember(pendingMemberAccount)\r\n    returns (bytes32 memberName) \r\n  {\r\n    memberAddresses.push(pendingMemberAccount);\r\n    memberStructs[pendingMemberAccount] = pendingMemberStructs[pendingMemberAccount];\r\n    removePendingMember(pendingMemberAccount);\r\n    return memberStructs[pendingMemberAccount].name;\r\n  }\r\n\r\n  function addVoting(bytes32 votingName) public \r\n    isAMember(msg.sender)\r\n  {\r\n    address votingAddress = new Voting(votingName, locationAddress);\r\n    votingAddresses.push(votingAddress);\r\n    VotingCreated(votingAddress);\r\n  }\r\n\r\n  function closeVotingStochastic(address votingAddress) public\r\n    isAMember(msg.sender)\r\n  {\r\n    Voting voting = Voting(votingAddress);\r\n    voting.closeVotingStochastic();\r\n    removeVoting(votingAddress);\r\n  }\r\n\r\n  //**************** Getter *******************//\r\n  //-------------------------------------------//\r\n  function getTeamName() public constant returns (bytes32 votingName) {\r\n    return teamName;\r\n  }\r\n  \r\n  function getMembersCount() public constant returns (uint memberCount) {\r\n    return memberAddresses.length;\r\n  }  \r\n  \r\n  function getPendingMembersCount() public constant returns (uint pendingMembersCount) {\r\n    return pendingMemberAddresses.length;\r\n  }\r\n\r\n  function getMemberByIndex(uint index) public constant\r\n    returns (address account, bytes32 name, uint avatarId)\r\n  {\r\n    MemberStruct storage m = memberStructs[memberAddresses[index]];\r\n    return (m.account, m.name, m.avatarId);\r\n  }\r\n\r\n  function getMemberByAddress(address adr) public constant\r\n    returns (address account, bytes32 name, uint avatarId)\r\n  {\r\n    MemberStruct storage m = memberStructs[adr];\r\n    return (m.account, m.name, m.avatarId);\r\n  }\r\n\r\n  function getPendingMemberByIndex(uint index) public constant\r\n    returns (address account, bytes32 name, uint avatarId, bytes32 invitationToken)\r\n  {\r\n    MemberStruct storage m = pendingMemberStructs[pendingMemberAddresses[index]];\r\n    return (m.account, m.name, m.avatarId, m.invitationToken);\r\n  }\r\n\r\n  function getPendingMemberByAddress(address adr) public constant\r\n    returns (address account, bytes32 name, uint avatarId, bytes32 invitationToken)\r\n  {\r\n    MemberStruct storage m = pendingMemberStructs[adr];\r\n    return (m.account, m.name, m.avatarId, m.invitationToken);\r\n  }\r\n\r\n  function checkMemberByAddress(address addr) public constant returns (bool isMember) {\r\n    return memberStructs[addr].account == addr;\r\n  }\r\n\r\n  function getLocationAddress() public constant returns (address locationAddr) {\r\n    return locationAddress;\r\n  }\r\n\r\n  function getVotingsCount() public constant returns (uint memberCount) {\r\n    return votingAddresses.length;\r\n  }  \r\n  \r\n  function getVotingByIndex(uint index) public constant returns (address votingAddress) {\r\n    return votingAddresses[index];\r\n  }\r\n\r\n  function getClosedVotingsCount() public constant returns (uint memberCount) {\r\n    return closedVotingAddresses.length;\r\n  }  \r\n  \r\n  function getClosedVotingByIndex(uint index) public constant returns (address votingAddress) {\r\n    return closedVotingAddresses[index];\r\n  }\r\n\r\n  //***************** Modifier ****************//\r\n  //-------------------------------------------//\r\n  modifier isAPendingMember(address account) {\r\n    require(pendingMemberStructs[account].account == account);\r\n    _;\r\n  }\r\n\r\n  modifier isNotAPendingMember(address account) {\r\n    require(pendingMemberStructs[account].account != account);\r\n    _;\r\n  }\r\n\r\n  modifier isAMember(address account) {\r\n    require(memberStructs[account].account == account);\r\n    _;\r\n  }\r\n\r\n  modifier isNotAMember(address account) {\r\n    require(memberStructs[account].account != account);\r\n    _;\r\n  }\r\n\r\n  modifier isValidInvitationToken(bytes32 token) {\r\n    require(invitationTokens[token] == true);\r\n    _;\r\n  }\r\n\r\n  //***************** INTERNAL ****************//\r\n  //-------------------------------------------//\r\n  function generateToken() private view returns (bytes32 token) {\r\n    return keccak256(block.blockhash(block.number-1));\r\n  }\r\n  \r\n  //TODO: Refactor and add check for success\r\n  function removePendingMember(address addressToRemove) private {\r\n    uint index = 0;\r\n    bool success = false;\r\n\r\n    for (uint j = index; j < pendingMemberAddresses.length-1; j++) {\r\n      if (pendingMemberAddresses[j] == addressToRemove) {\r\n        success = true;\r\n        index = i;\r\n      }\r\n    }\r\n    //move elements to the gap and delete the last (void) element\r\n    for (uint i = index; i < pendingMemberAddresses.length-1; i++) {\r\n      pendingMemberAddresses[i] = pendingMemberAddresses[i+1];\r\n    }\r\n    delete pendingMemberAddresses[pendingMemberAddresses.length-1];\r\n    pendingMemberAddresses.length--;\r\n\r\n    //delte struct\r\n    delete pendingMemberStructs[addressToRemove];\r\n  }\r\n\r\n  function removeVoting(address addressToRemove) private {\r\n    uint index = 0;\r\n    bool success = false;\r\n\r\n    for (uint j = index; j < votingAddresses.length-1; j++) {\r\n      if (votingAddresses[j] == addressToRemove) {\r\n        success = true;\r\n        index = i;\r\n      }\r\n    }\r\n    if (success) {\r\n      //move elements to the gap and delete the last (void) element\r\n      for (uint i = index; i < votingAddresses.length-1; i++) {\r\n        votingAddresses[i] = votingAddresses[i+1];\r\n      }\r\n      delete votingAddresses[votingAddresses.length-1];\r\n      votingAddresses.length--;\r\n      closedVotingAddresses.push(addressToRemove);\r\n    }\r\n  }\r\n}",
  "sourcePath": "C:\\devAndroid\\Projects\\ws17-EthereumBlockchain\\contracts\\Team.sol",
  "compiler": {
    "name": "solc",
    "version": "0.4.18+commit.9cf6e910.Emscripten.clang"
  },
  "schemaVersion": "1.0.1",
  "updatedAt": "2018-01-12T09:44:08.573Z"
}