{
  "contractName": "Voting",
  "abi": [
    {
      "constant": true,
      "inputs": [
        {
          "name": "index",
          "type": "uint256"
        }
      ],
      "name": "getUserPointsByIndex",
      "outputs": [
        {
          "name": "adr",
          "type": "address"
        },
        {
          "name": "points",
          "type": "uint256"
        }
      ],
      "payable": false,
      "stateMutability": "view",
      "type": "function"
    },
    {
      "constant": true,
      "inputs": [],
      "name": "name",
      "outputs": [
        {
          "name": "",
          "type": "bytes32"
        }
      ],
      "payable": false,
      "stateMutability": "view",
      "type": "function"
    },
    {
      "constant": true,
      "inputs": [],
      "name": "getVotingUsersCount",
      "outputs": [
        {
          "name": "votingUsersCount",
          "type": "uint256"
        }
      ],
      "payable": false,
      "stateMutability": "view",
      "type": "function"
    },
    {
      "constant": false,
      "inputs": [
        {
          "name": "locationURI",
          "type": "bytes32"
        },
        {
          "name": "points",
          "type": "uint256"
        }
      ],
      "name": "addVote",
      "outputs": [],
      "payable": false,
      "stateMutability": "nonpayable",
      "type": "function"
    },
    {
      "constant": true,
      "inputs": [
        {
          "name": "index",
          "type": "uint256"
        }
      ],
      "name": "getLocationPointsByIndex",
      "outputs": [
        {
          "name": "uri",
          "type": "bytes32"
        },
        {
          "name": "points",
          "type": "uint256"
        }
      ],
      "payable": false,
      "stateMutability": "view",
      "type": "function"
    },
    {
      "constant": true,
      "inputs": [],
      "name": "getVotedLocationsCount",
      "outputs": [
        {
          "name": "votedLocationsCount",
          "type": "uint256"
        }
      ],
      "payable": false,
      "stateMutability": "view",
      "type": "function"
    },
    {
      "constant": true,
      "inputs": [],
      "name": "getWinningLocation",
      "outputs": [
        {
          "name": "winningLocationUri",
          "type": "bytes32"
        }
      ],
      "payable": false,
      "stateMutability": "view",
      "type": "function"
    },
    {
      "constant": true,
      "inputs": [
        {
          "name": "_uri",
          "type": "bytes32"
        }
      ],
      "name": "getLocationPointsByURI",
      "outputs": [
        {
          "name": "uri",
          "type": "bytes32"
        },
        {
          "name": "points",
          "type": "uint256"
        }
      ],
      "payable": false,
      "stateMutability": "view",
      "type": "function"
    },
    {
      "constant": true,
      "inputs": [
        {
          "name": "_adr",
          "type": "address"
        }
      ],
      "name": "getUserPointsByAddress",
      "outputs": [
        {
          "name": "adr",
          "type": "address"
        },
        {
          "name": "points",
          "type": "uint256"
        }
      ],
      "payable": false,
      "stateMutability": "view",
      "type": "function"
    },
    {
      "constant": true,
      "inputs": [],
      "name": "votingIsClosed",
      "outputs": [
        {
          "name": "",
          "type": "bool"
        }
      ],
      "payable": false,
      "stateMutability": "view",
      "type": "function"
    },
    {
      "constant": true,
      "inputs": [],
      "name": "winningLocation",
      "outputs": [
        {
          "name": "",
          "type": "bytes32"
        }
      ],
      "payable": false,
      "stateMutability": "view",
      "type": "function"
    },
    {
      "constant": false,
      "inputs": [],
      "name": "closeVotingStochastic",
      "outputs": [],
      "payable": false,
      "stateMutability": "nonpayable",
      "type": "function"
    },
    {
      "constant": true,
      "inputs": [],
      "name": "getVotingName",
      "outputs": [
        {
          "name": "votingName",
          "type": "bytes32"
        }
      ],
      "payable": false,
      "stateMutability": "view",
      "type": "function"
    },
    {
      "inputs": [
        {
          "name": "_name",
          "type": "bytes32"
        },
        {
          "name": "locationAddress",
          "type": "address"
        }
      ],
      "payable": false,
      "stateMutability": "nonpayable",
      "type": "constructor"
    },
    {
      "anonymous": false,
      "inputs": [
        {
          "indexed": false,
          "name": "winningLocation",
          "type": "bytes32"
        },
        {
          "indexed": false,
          "name": "random",
          "type": "uint256"
        },
        {
          "indexed": false,
          "name": "sumOfAllPoints",
          "type": "uint256"
        }
      ],
      "name": "VotingClosed",
      "type": "event"
    }
  ],
  "bytecode": "0x60606040526000600160006101000a81548160ff021916908315150217905550341561002a57600080fd5b604051604080610df28339810160405280805190602001909190805190602001909190505033600960006101000a81548173ffffffffffffffffffffffffffffffffffffffff021916908373ffffffffffffffffffffffffffffffffffffffff160217905550600960009054906101000a900473ffffffffffffffffffffffffffffffffffffffff16600860006101000a81548173ffffffffffffffffffffffffffffffffffffffff021916908373ffffffffffffffffffffffffffffffffffffffff16021790555080600760006101000a81548173ffffffffffffffffffffffffffffffffffffffff021916908373ffffffffffffffffffffffffffffffffffffffff16021790555081600081600019169055505050610ca2806101506000396000f3006060604052600436106100c5576000357c0100000000000000000000000000000000000000000000000000000000900463ffffffff16806305fb367f146100ca57806306fdde0314610134578063434a82401461016557806369d2096e1461018e5780637a59e337146101be5780639ed8bc8c14610204578063cc047b8c1461022d578063cc6c13951461025e578063d329c9b1146102a8578063d95145e814610328578063da1a18e014610355578063fa7eb56b14610386578063fd73788a1461039b575b600080fd5b34156100d557600080fd5b6100eb60048080359060200190919050506103cc565b604051808373ffffffffffffffffffffffffffffffffffffffff1673ffffffffffffffffffffffffffffffffffffffff1681526020018281526020019250505060405180910390f35b341561013f57600080fd5b61014761048d565b60405180826000191660001916815260200191505060405180910390f35b341561017057600080fd5b610178610493565b6040518082815260200191505060405180910390f35b341561019957600080fd5b6101bc6004808035600019169060200190919080359060200190919050506104a0565b005b34156101c957600080fd5b6101df60048080359060200190919050506108c1565b6040518083600019166000191681526020018281526020019250505060405180910390f35b341561020f57600080fd5b61021761091e565b6040518082815260200191505060405180910390f35b341561023857600080fd5b61024061092b565b60405180826000191660001916815260200191505060405180910390f35b341561026957600080fd5b610283600480803560001916906020019091905050610935565b6040518083600019166000191681526020018281526020019250505060405180910390f35b34156102b357600080fd5b6102df600480803573ffffffffffffffffffffffffffffffffffffffff1690602001909190505061095e565b604051808373ffffffffffffffffffffffffffffffffffffffff1673ffffffffffffffffffffffffffffffffffffffff1681526020018281526020019250505060405180910390f35b341561033357600080fd5b61033b6109ab565b604051808215151515815260200191505060405180910390f35b341561036057600080fd5b6103686109be565b60405180826000191660001916815260200191505060405180910390f35b341561039157600080fd5b6103996109c4565b005b34156103a657600080fd5b6103ae610bcb565b60405180826000191660001916815260200191505060405180910390f35b6000806003838154811015156103de57fe5b906000526020600020900160009054906101000a900473ffffffffffffffffffffffffffffffffffffffff166004600060038681548110151561041d57fe5b906000526020600020900160009054906101000a900473ffffffffffffffffffffffffffffffffffffffff1673ffffffffffffffffffffffffffffffffffffffff1673ffffffffffffffffffffffffffffffffffffffff1681526020019081526020016000205491509150915091565b60005481565b6000600380549050905090565b600860009054906101000a900473ffffffffffffffffffffffffffffffffffffffff1673ffffffffffffffffffffffffffffffffffffffff166315328f0f336000604051602001526040518263ffffffff167c0100000000000000000000000000000000000000000000000000000000028152600401808273ffffffffffffffffffffffffffffffffffffffff1673ffffffffffffffffffffffffffffffffffffffff168152602001915050602060405180830381600087803b151561056557600080fd5b6102c65a03f1151561057657600080fd5b50505060405180519050151561058b57600080fd5b81600760009054906101000a900473ffffffffffffffffffffffffffffffffffffffff1673ffffffffffffffffffffffffffffffffffffffff16631bf39d33826000604051602001526040518263ffffffff167c0100000000000000000000000000000000000000000000000000000000028152600401808260001916600019168152602001915050602060405180830381600087803b151561062d57600080fd5b6102c65a03f1151561063e57600080fd5b50505060405180519050151561065357600080fd5b600160009054906101000a900460ff1615151561066f57600080fd5b81600081118015610681575060648111155b151561068c57600080fd5b82606481600460003373ffffffffffffffffffffffffffffffffffffffff1673ffffffffffffffffffffffffffffffffffffffff1681526020019081526020016000205401111515156106de57600080fd5b6000600460003373ffffffffffffffffffffffffffffffffffffffff1673ffffffffffffffffffffffffffffffffffffffff1681526020019081526020016000205414156107cf576003805480600101828161073a9190610bd4565b9160005260206000209001600033909190916101000a81548173ffffffffffffffffffffffffffffffffffffffff021916908373ffffffffffffffffffffffffffffffffffffffff160217905550506000600460003373ffffffffffffffffffffffffffffffffffffffff1673ffffffffffffffffffffffffffffffffffffffff168152602001908152602001600020819055505b83600460003373ffffffffffffffffffffffffffffffffffffffff1673ffffffffffffffffffffffffffffffffffffffff16815260200190815260200160002060008282540192505081905550600060066000876000191660001916815260200190815260200160002054141561089157600580548060010182816108549190610c00565b9160005260206000209001600087909190915090600019169055506000600660008760001916600019168152602001908152602001600020819055505b83600660008760001916600019168152602001908152602001600020600082825401925050819055505050505050565b6000806005838154811015156108d357fe5b906000526020600020900154600660006005868154811015156108f257fe5b906000526020600020900154600019166000191681526020019081526020016000205491509150915091565b6000600580549050905090565b6000600254905090565b600080826006600085600019166000191681526020019081526020016000205491509150915091565b60008082600460008573ffffffffffffffffffffffffffffffffffffffff1673ffffffffffffffffffffffffffffffffffffffff1681526020019081526020016000205491509150915091565b600160009054906101000a900460ff1681565b60025481565b60008060008060003373ffffffffffffffffffffffffffffffffffffffff16600960009054906101000a900473ffffffffffffffffffffffffffffffffffffffff1673ffffffffffffffffffffffffffffffffffffffff16141515610a2857600080fd5b600160009054906101000a900460ff16151515610a4457600080fd5b60018060006101000a81548160ff02191690831515021790555060009450600093505b600580549050841015610abb5760066000600586815481101515610a8757fe5b9060005260206000209001546000191660001916815260200190815260200160002054850194508380600101945050610a67565b600085111515610aca57600080fd5b600185600143034060019004811515610adf57fe5b0601925060009150600090505b600580549050811015610bc45760066000600583815481101515610b0c57fe5b9060005260206000209001546000191660001916815260200190815260200160002054820191508282101515610bb757600581815481101515610b4b57fe5b906000526020600020900154600281600019169055507f69306b523997a2985b104c94bc0c7f52092d494b749c7b15027ef1614cf2629a6002548487604051808460001916600019168152602001838152602001828152602001935050505060405180910390a1610bc4565b8080600101915050610aec565b5050505050565b60008054905090565b815481835581811511610bfb57818360005260206000209182019101610bfa9190610c2c565b5b505050565b815481835581811511610c2757818360005260206000209182019101610c269190610c51565b5b505050565b610c4e91905b80821115610c4a576000816000905550600101610c32565b5090565b90565b610c7391905b80821115610c6f576000816000905550600101610c57565b5090565b905600a165627a7a723058201b7ba5c08999b906216b55f5ca774f98c559269ea7f77d366c4c771911b8b9740029",
  "source": "pragma solidity 0.4.18;\r\n\r\nimport \"./Team.sol\";\r\nimport \"./Location.sol\";\r\n\r\n\r\ncontract Voting {\r\n\r\n  //*************** Public Vars ***************//\r\n  //-------------------------------------------//\r\n  bytes32 public name;\r\n  bool public votingIsClosed = false;\r\n  bytes32 public winningLocation;\r\n\r\n  //**************/*** Events *****************//\r\n  //-------------------------------------------//\r\n\r\n  event VotingClosed(bytes32 winningLocation, uint random, uint sumOfAllPoints);\r\n\r\n  //************** Private Vars ***************//\r\n  //-------------------------------------------//  \r\n  address[] private votingUsers;\r\n  mapping (address => uint) private userPoints;\r\n\r\n  bytes32[] private votedLocations;\r\n  mapping (bytes32 => uint) private locationPoints;\r\n\r\n  Location private location;\r\n  Team private team;\r\n  address private teamAddress;\r\n\r\n  //************** Constructor ****************//\r\n  //-------------------------------------------//\r\n  function Voting (bytes32 _name, address locationAddress) public {\r\n    teamAddress = msg.sender;\r\n    team = Team(teamAddress);\r\n    location = Location(locationAddress);\r\n    name = _name;\r\n  }\r\n\r\n  //************** Transactions ***************//\r\n  //-------------------------------------------//\r\n  function addVote (bytes32 locationURI, uint points) public \r\n    isMember()\r\n    isValidLocation(locationURI)\r\n    votingIsNotClosed()\r\n    hasValidePoints(points)\r\n    willNotExceed100Points(points) {\r\n\r\n    //init user, if first vote of user\r\n    if (userPoints[msg.sender] == 0) {\r\n      votingUsers.push(msg.sender);\r\n      userPoints[msg.sender] = 0;\r\n    }\r\n    userPoints[msg.sender] += points;\r\n\r\n    //init location, if first vote for location\r\n    if (locationPoints[locationURI] == 0) {\r\n      votedLocations.push(locationURI);\r\n      locationPoints[locationURI] = 0;\r\n    }\r\n    locationPoints[locationURI] += points;\r\n  }\r\n\r\n  function closeVotingStochastic () public \r\n    senderIsTeamContract()\r\n    votingIsNotClosed() {\r\n    votingIsClosed = true;\r\n\r\n    uint sumOfAllPoints = 0;\r\n    for (uint i = 0; i < votedLocations.length; i++) {\r\n      sumOfAllPoints += locationPoints[votedLocations[i]];\r\n    }\r\n\r\n    require(sumOfAllPoints > 0);\r\n\r\n    uint random = uint(block.blockhash(block.number-1))%sumOfAllPoints + 1;\r\n\r\n    uint sumOfPointsUntilWinner = 0;\r\n    for (uint j = 0; j < votedLocations.length; j++) {\r\n      sumOfPointsUntilWinner += locationPoints[votedLocations[j]];\r\n      if (sumOfPointsUntilWinner >= random) {\r\n        winningLocation = votedLocations[j];\r\n        VotingClosed(winningLocation, random, sumOfAllPoints);\r\n        break;\r\n      }\r\n    }\r\n  }\r\n\r\n  //********* LocationPoints Getter ***********//\r\n  //-------------------------------------------//\r\n  function getLocationPointsByIndex(uint index) public constant returns (bytes32 uri, uint points) {\r\n    return (votedLocations[index], locationPoints[votedLocations[index]]);\r\n  }\r\n\r\n  function getLocationPointsByURI(bytes32 _uri) public constant returns (bytes32 uri, uint points) {\r\n    return (_uri, locationPoints[_uri]);\r\n  }\r\n\r\n  function getVotedLocationsCount() public constant returns (uint votedLocationsCount) {\r\n    return votedLocations.length;\r\n  }\r\n\r\n  //*********** UserPoints Getter *************//\r\n  //-------------------------------------------//\r\n  function getUserPointsByIndex(uint index) public constant returns (address adr, uint points) {\r\n    return (votingUsers[index], userPoints[votingUsers[index]]);\r\n  }\r\n\r\n  function getUserPointsByAddress(address _adr) public constant returns (address adr, uint points) {\r\n    return (_adr, userPoints[_adr]);\r\n  }\r\n\r\n  function getVotingUsersCount() public constant returns (uint votingUsersCount) {\r\n    return votingUsers.length;\r\n  }\r\n\r\n  //************* Other Getter **************//\r\n  //-------------------------------------------//\r\n  function getVotingName() public constant returns (bytes32 votingName) {\r\n    return name;\r\n  }\r\n\r\n  function getWinningLocation() public constant returns (bytes32 winningLocationUri) {\r\n    return winningLocation;\r\n  }\r\n\r\n  //***************** Modifier ****************//\r\n  //-------------------------------------------//\r\n  modifier hasValidePoints(uint points) {\r\n    //if points == 0 -> check for fist invocation not possible + stupid call\r\n    //if points are too big overlaod is possible -> negative even if uint\r\n    require(points > 0 && points <= 100);\r\n    _;\r\n  }\r\n\r\n  modifier willNotExceed100Points(uint points) {\r\n    require((userPoints[msg.sender]+points) <= 100);\r\n    _;\r\n  }\r\n\r\n  modifier votingIsNotClosed() {\r\n    require(!votingIsClosed);\r\n    _;\r\n  }\r\n\r\n  modifier isMember() { \r\n    require(team.checkMemberByAddress(msg.sender));\r\n    _;\r\n  }\r\n\r\n  modifier senderIsTeamContract() {\r\n    require(teamAddress == msg.sender);\r\n    _;\r\n  }\r\n\r\n  modifier isValidLocation(bytes32 locationURI) {\r\n    require(location.checkIfUriExists(locationURI));\r\n    _;\r\n  }\r\n}\r\n",
  "sourcePath": "C:\\devAndroid\\Projects\\ws17-EthereumBlockchain\\contracts\\Voting.sol",
  "compiler": {
    "name": "solc",
    "version": "0.4.18+commit.9cf6e910.Emscripten.clang"
  },
  "schemaVersion": "1.0.1",
  "updatedAt": "2018-01-15T09:08:27.975Z"
}